{
  "contractName": "Lottery",
  "abi": [
    {
      "inputs": [],
      "name": "amount",
      "outputs": [
        {
          "internalType": "uint256",
          "name": "",
          "type": "uint256"
        }
      ],
      "stateMutability": "view",
      "type": "function"
    },
    {
      "inputs": [],
      "name": "description",
      "outputs": [
        {
          "internalType": "string",
          "name": "",
          "type": "string"
        }
      ],
      "stateMutability": "view",
      "type": "function"
    },
    {
      "inputs": [],
      "name": "owner",
      "outputs": [
        {
          "internalType": "address",
          "name": "",
          "type": "address"
        }
      ],
      "stateMutability": "view",
      "type": "function"
    },
    {
      "inputs": [
        {
          "internalType": "uint256",
          "name": "",
          "type": "uint256"
        }
      ],
      "name": "players",
      "outputs": [
        {
          "internalType": "address",
          "name": "",
          "type": "address"
        }
      ],
      "stateMutability": "view",
      "type": "function"
    },
    {
      "inputs": [],
      "name": "lottery",
      "outputs": [],
      "stateMutability": "nonpayable",
      "type": "function"
    },
    {
      "inputs": [],
      "name": "enter",
      "outputs": [],
      "stateMutability": "payable",
      "type": "function"
    },
    {
      "inputs": [],
      "name": "getWinner",
      "outputs": [],
      "stateMutability": "nonpayable",
      "type": "function"
    }
  ],
  "bytecode": "0x608060405267016345785d8a000060035534801561001c57600080fd5b506109968061002c6000396000f3fe6080604052600436106100705760003560e01c8063aa8c217c1161004e578063aa8c217c146100e2578063ba13a5721461010d578063e97dcb6214610124578063f71d96cb1461012e57610070565b80637284e416146100755780638da5cb5b146100a05780638e7ea5b2146100cb575b600080fd5b34801561008157600080fd5b5061008a61016b565b60405161009791906105de565b60405180910390f35b3480156100ac57600080fd5b506100b56101f9565b6040516100c29190610641565b60405180910390f35b3480156100d757600080fd5b506100e061021d565b005b3480156100ee57600080fd5b506100f7610379565b6040516101049190610675565b60405180910390f35b34801561011957600080fd5b5061012261037f565b005b61012c6103c1565b005b34801561013a57600080fd5b50610155600480360381019061015091906106c1565b610434565b6040516101629190610641565b60405180910390f35b600280546101789061071d565b80601f01602080910402602001604051908101604052809291908181526020018280546101a49061071d565b80156101f15780601f106101c6576101008083540402835291602001916101f1565b820191906000526020600020905b8154815290600101906020018083116101d457829003601f168201915b505050505081565b60008054906101000a900473ffffffffffffffffffffffffffffffffffffffff1681565b60008054906101000a900473ffffffffffffffffffffffffffffffffffffffff1673ffffffffffffffffffffffffffffffffffffffff163373ffffffffffffffffffffffffffffffffffffffff161461027557600080fd5b6000600180549050610285610473565b61028f919061077d565b9050600181815481106102a5576102a46107ae565b5b9060005260206000200160009054906101000a900473ffffffffffffffffffffffffffffffffffffffff1673ffffffffffffffffffffffffffffffffffffffff166108fc479081150290604051600060405180830381858888f19350505050158015610315573d6000803e3d6000fd5b50600067ffffffffffffffff811115610331576103306107dd565b5b60405190808252806020026020018201604052801561035f5781602001602082028036833780820191505090505b50600190805190602001906103759291906104a7565b5050565b60035481565b336000806101000a81548173ffffffffffffffffffffffffffffffffffffffff021916908373ffffffffffffffffffffffffffffffffffffffff160217905550565b60035434116103cf57600080fd5b6001339080600181540180825580915050600190039060005260206000200160009091909190916101000a81548173ffffffffffffffffffffffffffffffffffffffff021916908373ffffffffffffffffffffffffffffffffffffffff160217905550565b6001818154811061044457600080fd5b906000526020600020016000915054906101000a900473ffffffffffffffffffffffffffffffffffffffff1681565b6000426001604051602001610489929190610930565b6040516020818303038152906040528051906020012060001c905090565b828054828255906000526020600020908101928215610520579160200282015b8281111561051f5782518260006101000a81548173ffffffffffffffffffffffffffffffffffffffff021916908373ffffffffffffffffffffffffffffffffffffffff160217905550916020019190600101906104c7565b5b50905061052d9190610531565b5090565b5b8082111561054a576000816000905550600101610532565b5090565b600081519050919050565b600082825260208201905092915050565b60005b8381101561058857808201518184015260208101905061056d565b60008484015250505050565b6000601f19601f8301169050919050565b60006105b08261054e565b6105ba8185610559565b93506105ca81856020860161056a565b6105d381610594565b840191505092915050565b600060208201905081810360008301526105f881846105a5565b905092915050565b600073ffffffffffffffffffffffffffffffffffffffff82169050919050565b600061062b82610600565b9050919050565b61063b81610620565b82525050565b60006020820190506106566000830184610632565b92915050565b6000819050919050565b61066f8161065c565b82525050565b600060208201905061068a6000830184610666565b92915050565b600080fd5b61069e8161065c565b81146106a957600080fd5b50565b6000813590506106bb81610695565b92915050565b6000602082840312156106d7576106d6610690565b5b60006106e5848285016106ac565b91505092915050565b7f4e487b7100000000000000000000000000000000000000000000000000000000600052602260045260246000fd5b6000600282049050600182168061073557607f821691505b602082108103610748576107476106ee565b5b50919050565b7f4e487b7100000000000000000000000000000000000000000000000000000000600052601260045260246000fd5b60006107888261065c565b91506107938361065c565b9250826107a3576107a261074e565b5b828206905092915050565b7f4e487b7100000000000000000000000000000000000000000000000000000000600052603260045260246000fd5b7f4e487b7100000000000000000000000000000000000000000000000000000000600052604160045260246000fd5b600081549050919050565b600082825260208201905092915050565b60008190508160005260206000209050919050565b61084681610620565b82525050565b6000610858838361083d565b60208301905092915050565b60008160001c9050919050565b600073ffffffffffffffffffffffffffffffffffffffff82169050919050565b60006108a461089f83610864565b610871565b9050919050565b60006108b78254610891565b9050919050565b6000600182019050919050565b60006108d68261080c565b6108e08185610817565b93506108eb83610828565b8060005b8381101561092357610900826108ab565b61090a888261084c565b9750610915836108be565b9250506001810190506108ef565b5085935050505092915050565b60006040820190506109456000830185610666565b818103602083015261095781846108cb565b9050939250505056fea26469706673582212208b1f7aa9b5422a5e67919bf0c949e523e73f82ee2669b5883d689a40210be76464736f6c63430008110033",
  "immutableReferences": {},
  "source": "// SPDX-License-Identifier: GPL-3.0\r\npragma solidity >=0.4.0 <0.9.0;\r\n\r\ncontract Lottery{\r\n\r\n    address public owner;\r\n    address[] public players;\r\n    string public description;\r\n    uint public amount = 0.1 ether; \r\n\r\n\r\n    function lottery() public {\r\n        owner = msg.sender;\r\n    }\r\n\r\n    function enter() public payable{\r\n        require(msg.value > amount);\r\n        players.push(msg.sender);\r\n    }\r\n\r\n    function getRandom() private view returns(uint){\r\n        return uint (keccak256(abi.encode(block.timestamp, players)));\r\n    }\r\n\r\n    function getWinner() public isOwner{\r\n        uint index = getRandom() % players.length;\r\n        payable (players[index]).transfer(address(this).balance);\r\n        players = new address[](0);\r\n    }\r\n\r\n    modifier isOwner(){\r\n        require(msg.sender == owner);\r\n        _;\r\n    }\r\n\r\n}",
  "sourcePath": "C:\\Projects\\smart-contract\\contracts\\Lottery.sol",
  "compiler": {
    "name": "solc",
    "version": "0.8.17+commit.8df45f5f.Emscripten.clang"
  },
  "schemaVersion": "3.4.11",
  "updatedAt": "2022-12-12T17:02:04.868Z",
  "devdoc": {
    "kind": "dev",
    "methods": {},
    "version": 1
  },
  "userdoc": {
    "kind": "user",
    "methods": {},
    "version": 1
  }
}