{
  "contractName": "Lottery",
  "abi": [
    {
      "inputs": [],
      "stateMutability": "nonpayable",
      "type": "constructor"
    },
    {
      "inputs": [],
      "name": "amount",
      "outputs": [
        {
          "internalType": "uint256",
          "name": "",
          "type": "uint256"
        }
      ],
      "stateMutability": "view",
      "type": "function",
      "constant": true
    },
    {
      "inputs": [],
      "name": "description",
      "outputs": [
        {
          "internalType": "string",
          "name": "",
          "type": "string"
        }
      ],
      "stateMutability": "view",
      "type": "function",
      "constant": true
    },
    {
      "inputs": [],
      "name": "owner",
      "outputs": [
        {
          "internalType": "address",
          "name": "",
          "type": "address"
        }
      ],
      "stateMutability": "view",
      "type": "function",
      "constant": true
    },
    {
      "inputs": [
        {
          "internalType": "uint256",
          "name": "",
          "type": "uint256"
        }
      ],
      "name": "players",
      "outputs": [
        {
          "internalType": "address",
          "name": "",
          "type": "address"
        }
      ],
      "stateMutability": "view",
      "type": "function",
      "constant": true
    },
    {
      "inputs": [],
      "name": "lottery",
      "outputs": [],
      "stateMutability": "nonpayable",
      "type": "function"
    },
    {
      "inputs": [],
      "name": "enter",
      "outputs": [],
      "stateMutability": "payable",
      "type": "function",
      "payable": true
    },
    {
      "inputs": [],
      "name": "getWinner",
      "outputs": [],
      "stateMutability": "nonpayable",
      "type": "function"
    }
  ],
  "bytecode": "0x608060405267016345785d8a000060035534801561001c57600080fd5b50336000806101000a81548173ffffffffffffffffffffffffffffffffffffffff021916908373ffffffffffffffffffffffffffffffffffffffff16021790555061099c8061006c6000396000f3fe6080604052600436106100705760003560e01c8063aa8c217c1161004e578063aa8c217c146100e2578063ba13a5721461010d578063e97dcb6214610124578063f71d96cb1461012e57610070565b80637284e416146100755780638da5cb5b146100a05780638e7ea5b2146100cb575b600080fd5b34801561008157600080fd5b5061008a61016b565b60405161009791906105e4565b60405180910390f35b3480156100ac57600080fd5b506100b56101f9565b6040516100c29190610647565b60405180910390f35b3480156100d757600080fd5b506100e061021d565b005b3480156100ee57600080fd5b506100f7610379565b604051610104919061067b565b60405180910390f35b34801561011957600080fd5b5061012261037f565b005b61012c6103c1565b005b34801561013a57600080fd5b50610155600480360381019061015091906106c7565b61043a565b6040516101629190610647565b60405180910390f35b6002805461017890610723565b80601f01602080910402602001604051908101604052809291908181526020018280546101a490610723565b80156101f15780601f106101c6576101008083540402835291602001916101f1565b820191906000526020600020905b8154815290600101906020018083116101d457829003601f168201915b505050505081565b60008054906101000a900473ffffffffffffffffffffffffffffffffffffffff1681565b60008054906101000a900473ffffffffffffffffffffffffffffffffffffffff1673ffffffffffffffffffffffffffffffffffffffff163373ffffffffffffffffffffffffffffffffffffffff161461027557600080fd5b6000600180549050610285610479565b61028f9190610783565b9050600181815481106102a5576102a46107b4565b5b9060005260206000200160009054906101000a900473ffffffffffffffffffffffffffffffffffffffff1673ffffffffffffffffffffffffffffffffffffffff166108fc479081150290604051600060405180830381858888f19350505050158015610315573d6000803e3d6000fd5b50600067ffffffffffffffff811115610331576103306107e3565b5b60405190808252806020026020018201604052801561035f5781602001602082028036833780820191505090505b50600190805190602001906103759291906104ad565b5050565b60035481565b336000806101000a81548173ffffffffffffffffffffffffffffffffffffffff021916908373ffffffffffffffffffffffffffffffffffffffff160217905550565b670de0b6b3a764000034116103d557600080fd5b6001339080600181540180825580915050600190039060005260206000200160009091909190916101000a81548173ffffffffffffffffffffffffffffffffffffffff021916908373ffffffffffffffffffffffffffffffffffffffff160217905550565b6001818154811061044a57600080fd5b906000526020600020016000915054906101000a900473ffffffffffffffffffffffffffffffffffffffff1681565b600042600160405160200161048f929190610936565b6040516020818303038152906040528051906020012060001c905090565b828054828255906000526020600020908101928215610526579160200282015b828111156105255782518260006101000a81548173ffffffffffffffffffffffffffffffffffffffff021916908373ffffffffffffffffffffffffffffffffffffffff160217905550916020019190600101906104cd565b5b5090506105339190610537565b5090565b5b80821115610550576000816000905550600101610538565b5090565b600081519050919050565b600082825260208201905092915050565b60005b8381101561058e578082015181840152602081019050610573565b60008484015250505050565b6000601f19601f8301169050919050565b60006105b682610554565b6105c0818561055f565b93506105d0818560208601610570565b6105d98161059a565b840191505092915050565b600060208201905081810360008301526105fe81846105ab565b905092915050565b600073ffffffffffffffffffffffffffffffffffffffff82169050919050565b600061063182610606565b9050919050565b61064181610626565b82525050565b600060208201905061065c6000830184610638565b92915050565b6000819050919050565b61067581610662565b82525050565b6000602082019050610690600083018461066c565b92915050565b600080fd5b6106a481610662565b81146106af57600080fd5b50565b6000813590506106c18161069b565b92915050565b6000602082840312156106dd576106dc610696565b5b60006106eb848285016106b2565b91505092915050565b7f4e487b7100000000000000000000000000000000000000000000000000000000600052602260045260246000fd5b6000600282049050600182168061073b57607f821691505b60208210810361074e5761074d6106f4565b5b50919050565b7f4e487b7100000000000000000000000000000000000000000000000000000000600052601260045260246000fd5b600061078e82610662565b915061079983610662565b9250826107a9576107a8610754565b5b828206905092915050565b7f4e487b7100000000000000000000000000000000000000000000000000000000600052603260045260246000fd5b7f4e487b7100000000000000000000000000000000000000000000000000000000600052604160045260246000fd5b600081549050919050565b600082825260208201905092915050565b60008190508160005260206000209050919050565b61084c81610626565b82525050565b600061085e8383610843565b60208301905092915050565b60008160001c9050919050565b600073ffffffffffffffffffffffffffffffffffffffff82169050919050565b60006108aa6108a58361086a565b610877565b9050919050565b60006108bd8254610897565b9050919050565b6000600182019050919050565b60006108dc82610812565b6108e6818561081d565b93506108f18361082e565b8060005b8381101561092957610906826108b1565b6109108882610852565b975061091b836108c4565b9250506001810190506108f5565b5085935050505092915050565b600060408201905061094b600083018561066c565b818103602083015261095d81846108d1565b9050939250505056fea2646970667358221220ebe3d1f5be4930782eed2a1642fa4a91e5cc054e59791797fe59f0168f8942f864736f6c63430008110033",
  "immutableReferences": {},
  "source": "// SPDX-License-Identifier: GPL-3.0\r\npragma solidity >=0.4.0 <0.9.0;\r\n\r\ncontract Lottery{\r\n\r\n    address public owner;\r\n    address[] public players;\r\n    string public description;\r\n    uint public amount = 0.1 ether; \r\n\r\n    constructor(){\r\n        owner = msg.sender;\r\n    }\r\n\r\n    function lottery() public {\r\n        owner = msg.sender;\r\n    }\r\n\r\n    function enter() public payable{\r\n        require(msg.value > 1 ether);\r\n        players.push(msg.sender);\r\n    }\r\n\r\n    function getRandom() private view returns(uint){\r\n        return uint (keccak256(abi.encode(block.timestamp, players)));\r\n    }\r\n\r\n    function getWinner() public isOwner{\r\n        uint index = getRandom() % players.length;\r\n        payable (players[index]).transfer(address(this).balance);\r\n        players = new address[](0);\r\n    }\r\n\r\n    modifier isOwner(){\r\n        require(msg.sender == owner);\r\n        _;\r\n    }\r\n\r\n}",
  "sourcePath": "C:\\Projects\\smart-contract\\contracts\\Lottery.sol",
  "compiler": {
    "name": "solc",
    "version": "0.8.17+commit.8df45f5f.Emscripten.clang"
  },
  "schemaVersion": "3.4.11",
  "updatedAt": "2022-12-12T19:26:35.163Z",
  "networkType": "ethereum",
  "devdoc": {
    "kind": "dev",
    "methods": {},
    "version": 1
  },
  "userdoc": {
    "kind": "user",
    "methods": {},
    "version": 1
  }
}